:100000000C94AA010C94C7010C94C7010C94C7016D
:100010000C94C7010C94C7010C94C7010C94C70140
:100020000C94C7010C94C7010C94C7010C94F70AF7
:100030000C94230B0C94C7010C94C7010C94C701BA
:100040000C94C7010C94C7010C94C7010C94C70110
:100050000C94C7019C007B005A00596F7572206197
:100060007474656E64616E6365207265636F72643B
:100070002069732073746F72656400596F75206115
:100080007265207375636365737366756C6C792034
:1000900072656769737465726564200057656C6387
:1000A0006F6D6520746F20417474656E64616E635A
:1000B000652053797374656D003A0328030303F2D6
:1000C00002D502A70277024F023E020802F2013275
:1000D00002E801D301BA01A1018801760127025F7C
:1000E000015201410125010901EB004661696C20C3
:1000F000746F207265636569766520746865206633
:100100006F6C6C6F77696E67002054656D706C6101
:100110007465206C6F6164656420746F206275661D
:1001200066657220002054656D706C617465206C8A
:100130006F6164656420746F206275666665722005
:10014000002076616C69642074656D706C61746503
:100150007300546865726520617265203A20005012
:100160006C6561736520656E7465722074686520C6
:100170004944203A2000466C6173682077617320FF
:10018000656D7074696564004E6F206D617463689D
:10019000696E672066696E67657220666F756E644A
:1001A00000466F756E6420746865206D61746368C5
:1001B000696E672066696E6572004572726F7220A3
:1001C0007768656E2077726974696E6720666C6106
:1001D000736800206973206265796F6E64207468AB
:1001E000652073636F706500546865204944203A48
:1001F000200054656D706C61746520646F206E6FB3
:1002000074206D617463680054656D706C61746511
:10021000206F662074776F20627566666572206D48
:10022000617463686564002077617320666F756E22
:100230006400207761732073746F7265640046698F
:100240006E67657220776974682049443A200046D9
:1002500061696C2064756520746F206C61636B202C
:100260006F662076616C6964207072696D61727965
:1002700020496D616765004661696C206475652081
:10028000746F206F76657220736D616C6C6E657330
:1002900073206F662066696E6765727072696E742E
:1002A00020496D616765004661696C206475652051
:1002B000746F206F766572206469736F7264657203
:1002C0006C792066696E6765727072696E74204918
:1002D0006D616765004572726F72207768656E2088
:1002E000726563656976696E67207061636B6167CB
:1002F00065005363616E6E696E67202E2E2E2E2E62
:100300002E2E00506C656173652074617020796FCA
:1003100075722066696E67657220746F20746865F7
:100320002073656E736F72004E6F20726574757204
:100330006E65642056616C756500436F6E6E656313
:1003400074696F6E2069732065737461626C697380
:100350006865640011241FBECFE5D4E0DEBFCDBFC9
:1003600010E0A0E6B0E0E8E9F7E102C005900D92E8
:10037000A43CB107D9F721E0A4ECB0E001C01D9284
:10038000AC3EB207E1F70E94C9010C94CA0B0C9471
:100390000000CF93DF9300D000D0CDB7DEB70E942E
:1003A00043030E9415030E94080383E390E00E9428
:1003B000480B78940E9408030F2EF4E56F2EF0E0AE
:1003C0007F2EF02DF301659174918DEC91E00E94E8
:1003D000830B8DEC91E00E94F50288EE93E00E9481
:1003E000C502CE0101964C01312C212C8E010958F9
:1003F0001F4F89839A82432C522CD898D99A85E032
:1004000090E00E94C502CA9976C00E94080382B398
:1004100012BA82B3826182BB9C828B82C980DA80ED
:10042000E42CF52C8CEA90E00E94F5024AE050E0C2
:100430006DEC71E0C7010E948A0B0E94F50281EB0E
:1004400090E00E94F502F60181916F014AE050E0D0
:100450006DEC71E090E00E948A0B0E94F5028AE048
:1004600090E00E94C5020E940803FFEFEF1AFF0A06
:100470008BE0E816F104B1F60E94650AEB81FC817D
:100480008191FC83EB8390E00E94EE0A8B819C813A
:100490008017910799F784EB90E00E94F5020E9483
:1004A0000803F301659174918DEC91E00E94830B38
:1004B0008DEC91E00E94F50288EE93E00E94C50267
:1004C0000E940803E42CF52C0CC0C7010E94D4093B
:1004D0000E9447098AE090E00E94C5029FEFE91A56
:1004E000F90A0E94A408E816F9067CF30FB6F894FE
:1004F000DEBF0FBECDBFCB9B0E945303D998D89AC5
:1005000085E090E00E94C502CA991EC00E940803BF
:100510000E9453030E9452040E9483050E945707C1
:100520008130C1F70E940803E6E5F0E0659174911F
:100530008DEC91E00E94830B8DEC91E00E94F5021E
:1005400088EE93E00E94C502CB9957CF0E94080322
:100550000E94520468E270E0832D922D0E94E4070D
:100560008130A1F7E8E5F0E0659174918DEC91E0C0
:100570000E94830B8DEC91E00E94F50288EE93E0DF
:100580000E94C5020E94080338CF181619066CF4A1
:1005900020E030E0EFE9FFE03197F1F700C0000024
:1005A0002F5F3F4F28173907A9F70895C29AC298BD
:1005B00085E090E00E94C5020895CF93C82F88B3CC
:1005C0008F7088BB88B39C2F907F892B88BB0E943B
:1005D000D60288B38F7088BB88B3C295C07FC82B02
:1005E000C8BB0E94D602CF910895CF93DF93EC0150
:1005F000C29AC198C09A8881882339F0219690E0E8
:100600000E94DD0289918111FACFDF91CF91089587
:10061000C29A88B38C7F88BB81E090E00E94DD02A3
:1006200082E090E00E94DD0208958FEF87BB18BA48
:1006300085E090E00E94C50288B38F7088BBC59AA0
:100640000E94D60288E290E00E94DD028CE090E0F9
:100650000E94DD0286E090E00E94DD020E94080315
:10066000089582B312BA82B3826182BB82E090E0C5
:100670000E94C502089582B312BA919A82E090E076
:100680000E94C502089581B38E6181BB82B312BA04
:100690008AB383608ABB8BB31BBA84B38FEF84BBEE
:1006A00085B315BA0895CF92DF92EF92FF920F9320
:1006B0001F93CF930E943B031092C500E0E005ED2D
:1006C00011E00F2EFBEBCF2EF0E0DF2EF02D0F2EE2
:1006D000F9EBEF2EF0E0FF2EF02DF0E0ED56FF4F9E
:1006E00080810E94720B8091C5008C3009F039C066
:1006F0001092C500C0E00E945C0BEC2FF0E0E453C8
:10070000FE4F8083E091C500C1E0CE0FC093C500CD
:10071000CC3088F3F8018081811112C0F701659116
:1007200074918DEC91E00E94830B8DEC91E00E941E
:10073000F50284E690E00E94C5020E94080311C001
:10074000F601659174918DEC91E00E94830B8DEC24
:1007500091E00E94F50284E690E00E94C5020E94AA
:100760000803E091C500EF5FE093C500ED3008F4A9
:10077000B4CFCF911F910F91FF90EF90DF90CF906A
:1007800008950F931F93CF93DF930E943B03C0E024
:10079000D0E0FE01EA57FF4F80810E94720BCC30FF
:1007A000D10559F4CCECD1E008ED11E00E945C0BCE
:1007B0008993C017D107D1F704C02196CD30D10558
:1007C00044F30E9431030E943B038091D5018111C3
:1007D00005C081E08093C600A99A5DC08130A9F46C
:1007E0001092C6000E940803E1ECF0E0659174915C
:1007F0008DEC91E00E94830B8DEC91E00E94F5025C
:1008000088EE93E00E94C50246C08630A9F410929B
:10081000C6000E940803E3ECF0E0659174918DEC52
:1008200091E00E94830B8DEC91E00E94F50288EE2E
:1008300093E00E94C5022FC08730A9F41092C60031
:100840000E940803E5ECF0E0659174918DEC91E075
:100850000E94830B8DEC91E00E94F50288EE93E0FC
:100860000E94C50218C08531B1F41092C6000E94E2
:100870000803E7ECF0E0659174918DEC91E00E9443
:10088000830B8DEC91E00E94F50288EE93E00E94CC
:10089000C5020E9408030E943B03DF91CF911F9184
:1008A0000F910895CF92DF92EF92FF920F931F93D3
:1008B000CF93DF930E943B030E940803EDEBF0E02F
:1008C000659174918DEC91E00E94830B8DEC91E029
:1008D0000E94F50205ED11E00F2EF1ECCF2EF0E0B5
:1008E000DF2EF02D0F2EFFEBEF2EF0E0FF2EF02D80
:1008F00065C01092C500ED2FF0E0E056FF4F8081FB
:100900000E94720B8091C5008B3091F41092C5004B
:10091000CD2F0E945C0BEC2FF0E0E453FE4F808360
:10092000E091C500C1E0CE0FC093C500CC3088F384
:10093000E091C500EF5FE093C500EC30E8F20E9463
:1009400031030E943B03F8018081811117C0A89AEE
:100950000E940803F701659174918DEC91E00E946B
:10096000830B8DEC91E00E94F50288EE93E00E94EB
:10097000C5020E9408030E94C1031CC0823019F402
:100980001092C6001BC08130A9F41092C6000E94CC
:100990000803F601659174918DEC91E00E94830B40
:1009A0008DEC91E00E94F50284E690E00E94C50281
:1009B0000E9408038091C600813029F0D091C600C2
:1009C000DD2309F496CF1092C600DF91CF911F91DD
:1009D0000F91FF90EF90DF90CF900895CF930E94FA
:1009E0003B031092C500E0E0F0E0E758FF4F808144
:1009F0000E94720B8091C5008C3091F41092C5005A
:100A0000C0E00E945C0BEC2FF0E0E453FE4F8083CB
:100A1000E091C500C1E0CE0FC093C500CC3088F393
:100A2000E091C500EF5FE093C500ED30E8F20E9471
:100A300031030E943B038091D501811105C081E003
:100A40008093C600A99A5BC08130A9F41092C600B9
:100A50000E940803E1ECF0E0659174918DEC91E067
:100A60000E94830B8DEC91E00E94F50288EE93E0EA
:100A70000E94C50244C08630A9F41092C6000E94AC
:100A80000803E3ECF0E0659174918DEC91E00E9435
:100A9000830B8DEC91E00E94F50288EE93E00E94BA
:100AA000C5022DC08730A9F41092C6000E94080329
:100AB000E5ECF0E0659174918DEC91E00E94830B80
:100AC0008DEC91E00E94F50288EE93E00E94C50251
:100AD00016C08531A1F41092C6000E940803E7EC0D
:100AE000F0E0659174918DEC91E00E94830B8DECA8
:100AF00091E00E94F50288EE93E00E94C5020E94F8
:100B00003B03CF910895CF92DF92FF920F931F93F3
:100B1000CF93DF930E943B030E940803EDEBF0E0CC
:100B2000659174918DEC91E00E94830B8DEC91E0C6
:100B30000E94F50205ED11E00F2EF1ECCF2EF0E052
:100B4000DF2EF02DFF24F39458C01092C500ED2F36
:100B5000F0E0E056FF4F80810E94720B8091C5004B
:100B60008B3091F41092C500CD2F0E945C0BEC2FBE
:100B7000F0E0E453FE4F8083E091C500C1E0CE0F6A
:100B8000C093C500CC3088F3E091C500EF5FE093DF
:100B9000C500EC30E8F20E9431030E943B03F801EB
:100BA000808181110AC0A89AF092C60085E090E089
:100BB0000E94C5020E94EE041CC0823019F41092FB
:100BC000C6001BC08130A9F41092C6000E94080321
:100BD000F601659174918DEC91E00E94830B8DEC90
:100BE00091E00E94F50284E690E00E94C5020E9416
:100BF00008038091C600813029F0D091C600DD2322
:100C000009F4A3CF1092C600DF91CF911F910F91ED
:100C1000FF90DF90CF9008951F93CF93DF93D82F4D
:100C2000192F0E943B038FEE0E94720B81E00E94FD
:100C3000720B8FEF0E94720B8FEF0E94720B8FEF7F
:100C40000E94720B8FEF0E94720B81E00E94720B68
:100C500080E00E94720B86E00E94720B86E00E9488
:100C6000720B81E00E94720B80E00E94720B8D2F4C
:100C70000E94720B80E00E94720B8EE08D0F0E942A
:100C8000720B1092C500C0E00E945C0BEC2FF0E0EC
:100C9000E453FE4F8083E091C500C1E0CE0FC093C6
:100CA000C500CC3088F30E9431032091D501211179
:100CB0002CC0A99A0E940803E9ECF0E065917491B8
:100CC0008DEC91E00E94830B8DEC91E00E94F50287
:100CD0004AE050E06DEC71E08D2F912F0E948A0B5D
:100CE0000E94F502EFECF0E0659174918DEC91E0DB
:100CF0000E94830B8DEC91E00E94F50288EE93E058
:100D00000E94C5020E94080350C0213099F4E1EC12
:100D1000F0E0659174918DEC91E00E94830B8DEC75
:100D200091E00E94F50288EE93E00E94C5020E94C5
:100D300008033BC02B3019F5E1EDF0E065917491AB
:100D40008DEC91E00E94830B8DEC91E00E94F50206
:100D50008D2F912F0E94F502E3EDF0E065917491E3
:100D60008DEC91E00E94830B8DEC91E00E94F502E6
:100D700088EE93E00E94C5020E94080316C0283145
:100D8000A1F41092C600E5EDF0E0659174918DEC50
:100D900091E00E94830B8DEC91E00E94F50288EEB9
:100DA00093E00E94C5020E9408030E943B03DF916A
:100DB000CF911F9108950F931F93CF93DF930E94BC
:100DC0003B03C0E0D0E0FE01E359FF4F80810E9469
:100DD000720BCB30D10559F4CCECD1E008ED11E029
:100DE0000E945C0B8993C017D107D1F704C02196EC
:100DF000CC30D10544F38091D501811126C0A99A48
:100E00000E940803EFEDF0E0659174918DEC91E0A4
:100E10000E94830B8DEC91E00E94F5020E94310349
:100E20000E945C0BEC014AE050E06DEC71E00E9426
:100E30008A0B8DEC91E00E94F50288EE93E00E940F
:100E4000C502CE010E940C062BC0813099F40E948D
:100E50000803E1ECF0E0659174918DEC91E00E9463
:100E6000830B8DEC91E00E94F50288EE93E00E94E6
:100E7000C50216C08A30A1F40E940803E3ECF0E03A
:100E8000659174918DEC91E00E94830B8DEC91E063
:100E90000E94F50288EE93E00E94C5020E940803BA
:100EA0000E943B03DF91CF911F910F910895CF9343
:100EB0000E943B038FEE0E94720B81E00E94720B36
:100EC0008FEF0E94720B8FEF0E94720B8FEF0E94C8
:100ED000720B8FEF0E94720B81E00E94720B80E018
:100EE0000E94720B83E00E94720B83E00E94720BDF
:100EF00080E00E94720B87E00E94720B1092C50086
:100F0000C0E00E945C0BEC2FF0E0E453FE4F8083C6
:100F1000E091C500C1E0CE0FC093C500CE3088F38C
:100F20000E943B038091D50181111BC0A99A0E94A8
:100F30000803EBECF0E0659174918DEC91E00E9478
:100F4000830B8DEC91E00E94F50281E08093C40058
:100F500088EE93E00E94C5020E9408030E94DB060F
:100F60002DC08130A9F41092C400E1ECF0E065914D
:100F700074918DEC91E00E94830B8DEC91E00E94C6
:100F8000F50288EE93E00E94C5020E94080316C095
:100F90008830A1F41092C4000E940803EDECF0E048
:100FA000659174918DEC91E00E94830B8DEC91E042
:100FB0000E94F50288EE93E00E94C5020E943B0366
:100FC0008091C400CF910895DF92EF92FF920F932A
:100FD0001F93CF93DF937C018B010E943B03E701BA
:100FE0002E96C00FD11F8FEE0E94720B81E00E94DF
:100FF000720B8FEF0E94720B8FEF0E94720B8FEFBC
:101000000E94720B8FEF0E94720B81E00E94720BA4
:1010100080E00E94720B88E00E94720B84E00E94C4
:10102000720B81E00E94720B80E00E94720B8E2D89
:101030000E94720B80E00E94720B802F0E94720B44
:1010400080E00E94720B8C2F0E94720B1092C500E0
:10105000C0E00E945C0BEC2FF0E0E453FE4F808375
:10106000E091C500C1E0CE0FC093C500C03188F348
:101070000E9431039091D501911131C0A99AC0917C
:10108000D7018C2F0E94720BE9ECF0E0659174910E
:101090008DEC91E00E94830B8DEC91E00E94F502B3
:1010A0004AE050E06DEC71E08C2F90E00E948A0BDA
:1010B0000E94F502EDEDF0E0659174918DEC91E008
:1010C0000E94830B8DEC91E00E94F50288EE93E084
:1010D0000E94C5020E940803DD24D3942AC09130E7
:1010E00099F4E1ECF0E0659174918DEC91E00E944F
:1010F000830B8DEC91E00E94F50288EE93E00E9454
:10110000C5020E94080315C0993099F4E9EDF0E09A
:10111000659174918DEC91E00E94830B8DEC91E0D0
:101120000E94F50288EE93E00E94C5020E94080327
:10113000D12C0E943B038D2DDF91CF911F910F91F8
:10114000FF90EF90DF900895EF92FF920F931F931F
:10115000CF93DF930E943B038FEE0E94720B81E0DE
:101160000E94720B8FEF0E94720B8FEF0E94720B26
:101170008FEF0E94720B8FEF0E94720B81E00E9432
:10118000720B80E00E94720B83E00E94720B8DE173
:101190000E94720B80E00E94720B81E20E94720B2F
:1011A0001092C500C0E00E945C0BEC2FF0E0E4530D
:1011B000FE4F8083E091C500C1E0CE0FC093C50013
:1011C000CE3088F30E9431030E943B039091D501F9
:1011D00091113DC0A99AE090D601F12CC091D701A0
:1011E000D0E087010C0F1D1F0E940803E1EEF0E024
:1011F000659174918DEC91E00E94830B8DEC91E0F0
:101200000E94F5024AE050E06DEC71E0C7010E94D7
:101210008A0B0E94F5024AE050E06DEC71E0CE01CD
:101220000E948A0B0E94F502E3EEF0E06591749152
:101230008DEC91E00E94830B8DEC91E00E94F50211
:1012400088EE93E00E94C5020E94080316C0913008
:10125000A1F40E940803E1ECF0E0659174918DEC3B
:1012600091E00E94830B8DEC91E00E94F50284E6F0
:1012700090E00E94C5020E9408030E943B03C8013F
:10128000DF91CF911F910F91FF90EF900895BF9242
:10129000CF92DF92EF92FF920F931F93CF93DF9342
:1012A0000E943B031092C500E0E005ED11E00F2E17
:1012B000FBEBCF2EF0E0DF2EF02D0F2EFCE0BF2E4B
:1012C000F02D0F2EF9EBEF2EF0E0FF2EF02DF0E0D9
:1012D000E05AFF4F80810E94720BD091C500DC3034
:1012E00009F050C01092C500C0E00E945C0BEC2FCA
:1012F000F0E0E453FE4F8083E091C500C1E0CE0FE3
:10130000C093C500C13888F30E943103F801808181
:10131000811127C0B092C500ED2FF0E0E453FE4FDD
:1013200080810E94720B81E090E00E94C502E091F2
:10133000C500D1E0DE0FD093C500D13868F3F701C6
:10134000659174918DEC91E00E94830B8DEC91E09E
:101350000E94F50284E690E00E94C5020E94080304
:1013600011C0F601659174918DEC91E00E94830BA0
:101370008DEC91E00E94F50284E690E00E94C502A7
:101380000E940803E091C500EF5FE093C500ED30D7
:1013900008F49DCFDF91CF911F910F91FF90EF90B7
:1013A000DF90CF90BF900895CF93C82F0E943B034A
:1013B0008FEE0E94720B81E00E94720B8FEF0E94F1
:1013C000720B8FEF0E94720B8FEF0E94720B8FEFE8
:1013D0000E94720B81E00E94720B80E00E94720BEF
:1013E00086E00E94720B87E00E94720B81E00E94EF
:1013F000720B80E00E94720B8C2F0E94720B80E0B7
:101400000E94720B8FE08C0F0E94720B1092C5002D
:10141000C0E00E945C0BEC2FF0E0E453FE4F8083B1
:10142000E091C500C1E0CE0FC093C500CC3088F379
:101430000E9431038091D501811116C0A99A0E94A2
:101440000803E5EEF0E0659174918DEC91E00E9467
:10145000830B8DEC91E00E94F50284E690E00E94FF
:10146000C5020E9408032DC08130A9F40E94080320
:10147000E1ECF0E0659174918DEC91E00E94830BBA
:101480008DEC91E00E94F50284E690E00E94C50296
:101490000E94080316C08C30A1F40E940803E7EEF6
:1014A000F0E0659174918DEC91E00E94830B8DECDE
:1014B00091E00E94F50284E690E00E94C5020E943D
:1014C00008030E943B03CF910895CF930E943B03F2
:1014D0008FEE0E94720B81E00E94720B8FEF0E94D0
:1014E000720B8FEF0E94720B8FEF0E94720B8FEFC7
:1014F0000E94720B81E00E94720B80E00E94720BCE
:1015000084E00E94720B89E00E94720B81E00E94CD
:10151000720B80E00E94720B8FE00E94720B10929F
:10152000C500C0E00E945C0BEC2FF0E0E453FE4FDE
:101530008083E091C500C1E0CE0FC093C500CC30E0
:1015400088F30E9431038091D501811116C0A99AB8
:101550000E940803E5EEF0E0659174918DEC91E056
:101560000E94830B8DEC91E00E94F50284E690E0EE
:101570000E94C5020E9408032DC08130A9F40E9478
:101580000803E1ECF0E0659174918DEC91E00E942C
:10159000830B8DEC91E00E94F50284E690E00E94BE
:1015A000C5020E94080316C08E30A1F40E940803F1
:1015B000E9EEF0E0659174918DEC91E00E94830B6F
:1015C0008DEC91E00E94F50284E690E00E94C50255
:1015D0000E9408030E943B03CF910895CF93C82F28
:1015E0000E943B038C2F0E94720BCF9108951F9293
:1015F0000F920FB60F9211242F938F939F93EF9317
:10160000FF938BB12CB18871E091C900EF5FEF7748
:101610009091C800E91739F0E093C900F0E0E45375
:10162000FF4F208301C082E09091C700892B8093F7
:10163000C700FF91EF919F918F912F910F900FBE57
:101640000F901F9018951F920F920FB60F921124B2
:101650008F939F93EF93FF939091CB008091CA005B
:10166000981761F0E091CA00EF5FEF77E093CA004E
:10167000F0E0E45BFE4F80818CB901C05598FF918A
:10168000EF919F918F910F900FBE0F901F90189523
:101690001092CB001092CA001092C9001092C8009C
:1016A00099231CF422E02BB99F7710BC89B988E9F3
:1016B0008AB986E880BD08959091C9008091C800DC
:1016C0009817D1F3E091C800EF5FEF77E093C8007F
:1016D000F0E0E453FF4F80819091C7001092C70063
:1016E00090E008952091CB002F5F2F779091CA0052
:1016F0002917E1F3E22FF0E0E45BFE4F80832093B3
:10170000CB00559A0895FB01DC0105900D92002055
:10171000E1F708954532510520F4423010F00C9461
:10172000950BFB011082CB010895BB274A3031F4A1
:10173000992322F4BDE2909581959F4F0C94A10BC3
:10174000BB27FB015527AA27880F991FAA1FA4179B
:1017500010F0A41B83955051B9F7A05DAA3308F08F
:10176000A95DA193009779F7B111B1931192CB01C3
:101770000C94BA0BDC01FC01672F71917723E1F720
:10178000329704C07C916D9370836291AE17BF074E
:08179000C8F30895F894FFCF9F
:10179800EF01FFFFFFFF0100040801000EEF01FF4A
:1017A800FFFFFF010003050009EF01FFFFFFFF0135
:1017B800000402020009EF01FFFFFFFF010004021D
:1017C800010008EF01FFFFFFFF0100041701001DE2
:1017D800EF01FFFFFFFF01000301000554686520CA
:1017E8000020200053746F707065642073656E6408
:0417F800696E6700AF
:00000001FF
